:020000021000EC
:10C000000080002011C401006D6C0200B1D301005A
:10C010000000000000000000000000000000000020
:10C020000000000000000000000000006D6C020035
:10C0300000000000000000006D6C02006D6C02004A
:10C040006D6C02006D6C02006D6C02006D6C020084
:10C050006D6C0200000000006D6C02006D6C02004F
:10C060006D6C02006D6C02006D6C02006D6C020064
:10C070006D6C02006D6C02006D6C02006D6C020054
:10C080006D6C0200DDB502006D6C02006D6C02008B
:10C0900005B8020071B2020049A702006D6C0200EF
:10C0A0006D6C02006D6C02000000000000000000DA
:10C0B0000000000000000000000000000000000080
:10C0C00000000000FFFFFFFFFFFFFFFFFFFFFFFF7C
:10C0D000FFFFFFFFFFFFFFFFFFFFFFFFFFFFFFFF70
:10C0E000FFFFFFFFFFFFFFFFFFFFFFFFFFFFFFFF60
:10C0F000FFFFFFFFFFFFFFFFFFFFFFFFFFFFFFFF50
:10C10000FFFFFFFFFFFFFFFFFFFFFFFFFFFFFFFF3F
:10C40000FFFFFFFFFFFFFFFFFFFFFFFFFEFFFFFF3D
:10C4100080B500AF10F060FD0B4A0C4B9A4207D07C
:10C420000B4B0949094A081C111C1A1C1AF038FA4E
:10C43000084B094A101C00211A1C1AF04EFA10F081
:10C4400033FD00F049F8FEE70028002070D4030017
:0CC4500058010000780D00005829002061
:10C46000F8B5C046F8BC08BC9E467047F8B5C04653
:10C47000F8BC08BC9E46704710B5064C2378002BCC
:10C4800007D1054B002B02D0044800E000BF012378
:10C49000237010BD582900200000000070D4030054
:10C4A00008B5084B002B03D00748084900E000BF3F
:10C4B00007480368002B00D108BD064B002BFBD0BA
:10C4C0009847F9E70000000070D403005C290020C1
:10C4D0005829002000000000164B002B00D1144BFF
:10C4E0009D46402292029A1A924600218B460F46A0
:10C4F0001348144A121A1AF0F0F90F4B002B00D00F
:10C5000098470E4B002B00D09847002000210400D4
:10C510000D000D48002802D00C481AF0E8F81AF077
:10C520006BF92000290004F01DFE1AF0EFF8C04658
:10C530000000080000800020000000000000000053
:10C5400058290020D0360020EF66030000000000CC
:10C550007CDF70477ADF704778DF704774DF7047A1
:10C5600073DF704772DF704730B583B0104B114AEC
:10C570001A605C689D680DE020680C380E4B98428C
:10C5800007D083685A1E8260002B02DC01A910F0DC
:10C59000BBFE0434AC42EFD1054B5868002801D0F3
:10C5A00010F02EFD02480AF0B5FB03B030BDC046C6
:10C5B000102D0020A0A903008435002070B582B0A2
:10C5C000061C031C114A04C344685D680DE0206822
:10C5D0000C380F4B984207D083685A1E8260002B9C
:10C5E00002DC01A910F090FE0434AC42EFD1706877
:10C5F000002801D010F004FD301C0AF08BFB301C29
:10C6000010F0FEFC301C02B070BDC046A0A90300B3
:10C610008435002030B583B0104B114A1A605C6835
:10C620009D680DE020680C380E4B984207D0836857
:10C630005A1E8260002B02DC01A910F065FE043452
:10C64000AC42EFD1054B5868002801D010F0D8FC5F
:10C6500002480AF05FFB03B030BDC046102D002039
:10C66000A0A903008435002008B5054802F0C2FAED
:10C670000122044B1A6004481AF039F808BDC0467C
:10C68000102D00200C2D002015C6010010B5074B01
:10C690001B68002B07D1342010F0B6FC041C08F0F6
:10C6A00089FA024B1C60014B186810BD142B002046
:10C6B00070B584B001A803780F229343012213437D
:10C6C0000F221340102213430370CF490622FFF7B5
:10C6D0003FFF002803D00021002204F00BFC802043
:10C6E000FFF73AFF002803D00021002204F002FCEB
:10C6F000002302930393C54B1B68002B57D1542092
:10C7000010F082FC041C01250570457000260023F2
:10C710008670C8224260783A0281428186819622E0
:10C720009200C281B93AFF3A02824282402181825C
:10C73000FA214901C182C821C9000183082141832E
:10C740008283203AC2837B3A028405324284B04914
:10C750008184B049C184FA2189000185418582859F
:10C7600024328554013200218154013283542D3A00
:10C770004286313285540132032181540421013231
:10C7800081540132835401328554013283543A304A
:10C79000A149293A1AF084F84A23E6520233E552B5
:10C7A00009220233E2529D4B2365984B1C60974B44
:10C7B0001B68198902AA1180002B57D1542010F050
:10C7C00023FC041C0125057045700026002386709B
:10C7D000C8224260783A0281428186819622920084
:10C7E000C281B93AFF3A0282428240218182FA2113
:10C7F0004901C182C821C900018308214183828384
:10C80000203AC2837B3A0284053242848049818483
:10C810008049C184FA2189000185418582852432BD
:10C820008554013200218154013283542D3A4286CD
:10C830003132855401320321815404210132815463
:10C840000132835401328554013283543A307249A3
:10C85000293A1AF025F84A23E6520233E552092212
:10C860000233E2526D4B2365684B1C60674B1B68BB
:10C87000598902AA5180002B57D1542010F0C4FBD3
:10C88000041C012505704570002600238670C8220F
:10C890004260783A02814281868196229200C2816A
:10C8A000B93AFF3A0282428240218182FA2149014B
:10C8B000C182C821C9000183082141838283203AB3
:10C8C000C2837B3A028405324284514981845149B2
:10C8D000C184FA21890001854185828524328554ED
:10C8E000013200218154013283542D3A4286313283
:10C8F00085540132032181540421013281540132D3
:10C90000835401328554013283543A304249293AE2
:10C9100019F0C6FF4A23E6520233E55209220233D8
:10C92000E2523E4B2365394B1C60384B1B6899899A
:10C9300002AA9180002B57D1542010F065FB041CF3
:10C94000012505704570002600238670C8224260CC
:10C95000783A02814281868196229200C281B93A58
:10C96000FF3A0282428240218182FA214901C1823A
:10C97000C821C9000183082141838283203AC283F0
:10C980007B3A028405324284214981842149C18451
:10C99000FA2189000185418582852432855401323E
:10C9A00000218154013283542D3A4286313285541C
:10C9B0000132032181540421013281540132835414
:10C9C00001328554013283543A301349293A19F01F
:10C9D00067FF4A23E6520233E55209220233E2524C
:10C9E0000E4B2365094B1C60084B1B6802A8DB89B2
:10C9F000C380FFF7AFFD002803D00021002204F020
:10CA000079FA04B070BDC046F07E03001C2B0020F4
:10CA1000B80B000010270000E07E0300192700007B
:10CA200070B52F4B1B68002B57D1542010F0ECFA37
:10CA3000041C012505704570002600238670C8225D
:10CA40004260783A02814281868196229200C281B8
:10CA5000B93AFF3A0282428240218182FA21490199
:10CA6000C182C821C9000183082141838283203A01
:10CA7000C2837B3A0284053242841A4981841A496E
:10CA8000C184FA218900018541858285243285543B
:10CA9000013200218154013283542D3A42863132D1
:10CAA0008554013203218154042101328154013221
:10CAB000835401328554013283543A300B49293A68
:10CAC00019F0EEFE4A23E6520233E5520922023300
:10CAD000E252074B2365024B1C60014B186870BD86
:10CAE0001C2B0020B80B000010270000E07E030084
:10CAF0001927000070B582B0061C046845680DE077
:10CB000020680C380A4B984207D083685A1E82600E
:10CB1000002B02DC01A910F0F7FB0434A542EFD191
:10CB20003068002801D010F06BFA301C02B070BDE4
:10CB30008435002088DF704782DF704781DF7047CF
:10CB400076DF704770B582B0061C031C0F4A04C321
:10CB500044685D680DE020680C380D4B984207D0A2
:10CB600083685A1E8260002B02DC01A910F0CCFB06
:10CB70000434AC42EFD17068002801D010F040FAC4
:10CB8000301C0AF0C7F8301C02B070BDA0A9030029
:10CB90008435002000B583B00F4B1B68DB0708D439
:10CBA0000E4802F027F801220B4B1A600C4819F0CE
:10CBB0009EFD0C4B00930C4B0193084801210B4A3E
:10CBC000F22301F079FF0022094B1A800232094B4F
:10CBD0001A7003B000BDC0460C2D0020102D00209F
:10CBE00015C60100207F0300247F0300037F03009C
:10CBF000E829002074290020F0B583B0041C984B6C
:10CC00001B88984200D129E1002B20D0FFF7A6FC19
:10CC1000051E03D00021002204F06CF9002D16D16E
:10CC2000904B1B68DB0708D48F4801F0E3FF01221B
:10CC30008C4B1A608D4819F05AFD8D4B00938D4B2B
:10CC40000193894801218C4AD12301F035FF8023CB
:10CC5000DB009C4261D1894B1B68002B57D15420CB
:10CC600010F0D2F9051C012606704670002700233B
:10CC70008770C8224260783A028142818781962279
:10CC80009200C281B93AFF3A0282428240218182F7
:10CC9000FA214901C182C821C900018308214183C9
:10CCA0008283203AC2837B3A0284053242847449EB
:10CCB00081847449C184FA21890001854185828576
:10CCC00024328654013200218154013283542D3A9A
:10CCD00042863132865401320321815404210132CB
:10CCE00081540132835401328654013283543A30E4
:10CCF0006549293A19F0D4FD4A23EF520233EE5226
:10CD000009220233EA52614B2B655C4B1D605B4B81
:10CD10001B681A8A5E4B1A8264E0F0231B019C4256
:10CD200060D1564B1B68002B57D1542010F06CF982
:10CD3000051C012606704670002700238770C82254
:10CD40004260783A02814281878196229200C281B4
:10CD5000B93AFF3A0282428240218182FA21490196
:10CD6000C182C821C9000183082141838283203AFE
:10CD7000C2837B3A0284053242844149818441491D
:10CD8000C184FA2189000185418582852432865437
:10CD9000013200218154013283542D3A42863132CE
:10CDA000865401320321815404210132815401321D
:10CDB000835401328654013283543A303249293A3D
:10CDC00019F06EFD4A23EF520233EE52092202336C
:10CDD000EA522E4B2B65294B1D60284B1B68DA8AC3
:10CDE0002B4B1A822A4B1B7E002B11D02848417EE8
:10CDF0001C3000220023FFF7B5FB051E03D00021E5
:10CE0000002204F077F8002D02D10022204B1A7680
:10CE1000002C21D01E48FFF7A3FB051E03D00021E4
:10CE2000002204F067F8002D16D10E4B1B68DB07BB
:10CE300008D40D4801F0DEFE01220A4B1A600B48AF
:10CE400019F055FC0A4B0093124B0193064801213F
:10CE5000094AE82301F030FE014B1C8003B0F0BD0D
:10CE6000E82900200C2D0020102D002015C60100FF
:10CE7000207F03003C7F0300037F03001C2B002066
:10CE8000B80B000010270000E07E03001927000007
:10CE900074290020507F0300F0B589B0041C0D1CDC
:10CEA00003AA117801230B405E2149420B43137002
:10CEB0000D236B4400228C31415C19702F21415CA1
:10CEC00059700F236B441A705A7029680B1C0C3B65
:10CED0001A68002A03D0142A03D9012302E001238F
:10CEE00000E00023002B0BD0164B1B68DB0701D49E
:10CEF000FFF7BAFB1448022107F07AFA00201FE07E
:10CF0000D2B203AE72711220684419F0C9FCFFF767
:10CF1000BDFB012700970021321C142307F04EFDB2
:10CF200029687279201C0BF07BFD064B1B683B4285
:10CF300001D1FFF799FB0448002107F059FA0120BD
:10CF400009B0F0BD0C2D0020102D002038B5041CB8
:10CF50000D48A3880333426C1371A288051C483521
:10CF60005030216819F09CFCA3880833DBB2002004
:10CF700000212A1CFFF7F6FA002803D00021002226
:10CF800003F0B8FF38BDC04674290020F0B583B067
:10CF9000071C0D1C002A1FD0394B1B78002B1BD0FF
:10CFA000384B1B68DB0708D4374801F023FE012209
:10CFB000344B1A60354819F09AFB354B0093354BCA
:10CFC000019331480121344A802301F075FD00228C
:10CFD0002B4B1A70012624E0002A1FD1284B1B7806
:10CFE000022B1DD0274B1B68DB0708D4264801F015
:10CFF00001FE0122234B1A60244819F078FB244BD0
:10D000000093264B019320480121234A862301F0F7
:10D0100053FD02221A4B1A70012602E0002600E09E
:10D020000026174CAB880B336376206F8772AB8872
:10D030000733C3700B30AA88296819F031FCA9881E
:10D040000B31C9B2201C1C3000220023FFF78AFAE2
:10D05000041E03D00021002203F04CFF002E07D055
:10D060000F4B1D880020FFF7C7FD281CFFF7C4FDEC
:10D07000002C02D00122024B1A7603B0F0BDC0464C
:10D08000742900200C2D0020102D002015C6010051
:10D09000207F0300647F0300037F03008C7F030075
:10D0A000E82900200322014B1A70704774290020E0
:10D0B000F8B5041CB64B00221A765A760221197074
:10D0C0005A601A72DA60FF31FF3119825A82B14B0D
:10D0D0001B68002B57D154200FF096FF051C01262A
:10D0E00006704670002700238770C8224260783A95
:10D0F00002814281878196229200C281B93AFF3A29
:10D100000282428240218182FA214901C182C821E2
:10D11000C9000183082141838283203AC2837B3A7C
:10D120000284053242849C4981849C49C184FA214D
:10D13000890001854185828524328654013200218F
:10D140008154013283542D3A428631328654013261
:10D15000032181540421013281540132835401326C
:10D160008654013283543A308D49293A19F098FB9C
:10D170004A23EF520233EE5209220233EA52894B1C
:10D180002B65844B1D60834B196881482E23CB5C33
:10D190005A425A41037D0125AB43134303750029CD
:10D1A00057D154200FF030FF051C01260670467041
:10D1B000002700238770C8224260783A02814281AA
:10D1C000878196229200C281B93AFF3A0282428256
:10D1D00040218182FA214901C182C821C90001830D
:10D1E000082141838283203AC2837B3A028405323C
:10D1F0004284694981846949C184FA218900018591
:10D2000041858285243286540132002181540132C5
:10D2100083542D3A4286313286540132032181549F
:10D220000421013281540132835401328654013287
:10D2300083543A305A49293A19F032FB4A23EF52C3
:10D240000233EE5209220233EA52564B2B65514B00
:10D250001D60504B19684E482F23CB5C5A425341F6
:10D260005A00037D0225AB4313430375002957D1B0
:10D2700054200FF0C9FE051C0126067046700027D9
:10D2800000238770C8224260783A028142818781F8
:10D2900096229200C281B93AFF3A0282428240212C
:10D2A0008182FA214901C182C821C9000183082174
:10D2B00041838283203AC2837B3A028405324284CE
:10D2C000354981843549C184FA2189000185418528
:10D2D00082852432865401320021815401328354E4
:10D2E0002D3A428631328654013203218154042181
:10D2F0000132815401328354013286540132835405
:10D300003A302749293A19F0CBFA4A23EF5202332F
:10D31000EE5209220233EA52224B2B651D4B1D604F
:10D320001C4B19681A4B30228A5C51424A419100C9
:10D330001A7D042082430A431A7500211A4A11807B
:10D340001A1C1C321A6702221A77013A5A770532E0
:10D350009A77FF311A3299541A1C213249301070D1
:10D3600002205070F020232298549C841A1C4832CA
:10D370005A64ED3848241855092353703D3393708F
:10D380000733D37010715171084BD380F8BDC0467C
:10D39000742900201C2B0020B80B0000102700006F
:10D3A000E07E030019270000E82900204D0200005C
:10D3B000FEE7C04670B5334B1B68002B57D1542095
:10D3C0000FF022FE041C0125057045700026002385
:10D3D0008670C8224260783A028142818681962214
:10D3E0009200C281B93AFF3A028242824021818290
:10D3F000FA214901C182C821C90001830821418362
:10D400008283203AC2837B3A0284053242841E49D9
:10D4100081841E49C184FA21890001854185828564
:10D4200024328554013200218154013283542D3A33
:10D430004286313285540132032181540421013264
:10D4400081540132835401328554013283543A307D
:10D450000F49293A19F024FA4A23E6520233E552D9
:10D4600009220233E2520B4B2365064B1C60054B2D
:10D470001B68094A11688C2258688B5AC3188B5252
:10D4800070BDC0461C2B0020B80B00001027000008
:10D49000B87F030019270000082B002010B5041CDA
:10D4A000044B036009F036FC201C0FF0A9FD201C82
:10D4B00010BDC046F0B6030030B583B0104B114A22
:10D4C0001A605C689D680DE020680C380E4B98422D
:10D4D00007D083685A1E8260002B02DC01A90FF07E
:10D4E00013FF0434AC42EFD1054B5868002801D03B
:10D4F0000FF086FD024809F00DFC03B030BDC046B8
:10D50000102D0020A0A903008435002038B5051C8B
:10D510000DF032FE002412E00A4B1A68002A0DD0EA
:10D52000231C14339B009858002807D0036ADB782B
:10D53000002B03D003681B6A291C98470134092C6F
:10D54000EADD38BD082B002010B584B0041C437AF6
:10D55000002B19D00E4B1B68DB0708D40D4801F0D7
:10D5600049FB01220A4B1A600B4819F0C0F8A37A54
:10D570000A4A00920A4A0192029306480121094A86
:10D580007D2301F099FA01E007F01AFE04B010BD06
:10D590000C2D0020102D0020B9D40100E47F0300E1
:10D5A000F07F0300D37F0300F0B5474680B48EB010
:10D5B000051C0E1C4C680F898B789846A74B1B687E
:10D5C000DB0708D4A64801F015FB0122A34B1A6023
:10D5D000A44819F08CF823785B08A34A0092A34A68
:10D5E0000192029303979E480121A14AC32301F0AF
:10D5F00063FAE27823791B0213432A68D18D8B42A8
:10D6000042D09C498B423FD09B498B4203D14A2157
:10D61000525C022A38D0984A93420DD168680021A2
:10D620000BF0F2FD011E2FD0434600936868221CC8
:10D630003B1C07F0AFFA27E02378012293432E2BFF
:10D640000BD1E27B237C1B0213431AB2002A04DBBA
:10D6500001339BB2E3731B0A23746278A3781B0225
:10D660001343864A9A1892B285498A4204D8013BEC
:10D670009BB263701B0AA370434600936868291C21
:10D68000221C3B1C07F09AF9237801229343282B94
:10D6900000D094E10F2F00D078E1E27A237B1B02C7
:10D6A0001343784AAB526D4B1B68DB0708D46C48B8
:10D6B00001F0A0FA0122694B1A606A4819F017F8C4
:10D6C000714B0093714B019365480121684A062311
:10D6D000FF3301F0F1F9614B1B68DB0708D46048A8
:10D6E00001F088FA01225D4B1A605E4818F0FFFFD6
:10D6F0006378A67836021E436179A3791B020B4337
:10D700001A1CE0790004031C1343207A0006184316
:10D71000637AA17A0902194309040914627BA37B85
:10D720001B0213431B041B14574A0092584A0192D0
:10D730000296039004910593494801214C4A8423A1
:10D740005B0001F0B9F96079A27912020243E37932
:10D750001B0413431A1C237A1B0613432968A022B7
:10D760008858834220D13D4B1B68DB0708D43C48D6
:10D7700001F040FA0122394B1A603A4818F0B7FF1D
:10D78000AB7A414A0092434A019202933448012104
:10D79000374A0E23FF3301F08FF99D239B00E85A8F
:10D7A0000CF03EFE00F0FBFB667AA27A12023243D6
:10D7B0009E26895B17B20EB2B74202DB21D18342AB
:10D7C0001FD2264B1B68DB0708D4254801F012FA4C
:10D7D0000122224B1A60234818F089FF2A4B00933C
:10D7E0002D4B01931E480121214A8A235B0001F041
:10D7F00063F9EB7A002B00D0D1E3281CFFF7A4FEDD
:10D80000CDE3164B1B68DB0708D4154801F0F2F98D
:10D810000122124B1A60134818F069FF1A4B00934B
:10D820001E4B01930E480121114A1E23FF3301F0C4
:10D8300043F96868291C06F06FFF6278A3781B0221
:10D840001343174AAB52627BA37B1B0213431AB2EA
:10D85000002A27DB01339BB225E0C0460C2D0020B7
:10D86000102D0020B9D401001C8003002480030087
:10D87000D37F03003175000019790000CF8AFFFFC4
:10D88000167900007E020000E47F0300448003005C
:10D8900074800300B4800300FC800300088103004F
:10D8A000720200009F4BA04AAB52A04B1B68DB07E3
:10D8B00008D49F4801F09EF901229C4B1A609D48B4
:10D8C00018F015FF9E232A68D25EA1239B00EB5E11
:10D8D0000133994900919949019102920393944827
:10D8E0000121974A94235B0001F0E6F809AC237804
:10D8F000012213402A22134323702A6825236B44F4
:10D900002E21515C19702F21525C5A7027236B44D1
:10D910008C4AAA5C1A708B4AAA1852785A706868A6
:10D92000291C0BF06BFB29236B4480B21870000A92
:10D9300058700023E3717D4B1B68DB0708D47C48DB
:10D9400001F058F90122794B1A607A4818F0CFFE9D
:10D9500009ACE378227912021A430A9B1B021B14BA
:10D960007549009178490191029203937048012111
:10D97000734A9D235B0001F09FF8012300936868C0
:10D98000291C221C073307F005F908E3674B1B68C5
:10D99000DB0708D4664801F02DF90122634B1A60B9
:10D9A000644818F0A4FE694B0093694B01936048EA
:10D9B0000121634A4823FF3301F07EF8EFE22A2B6E
:10D9C00000D0E3E1082F00D0C7E1584B1B68DB070C
:10D9D00008D4574801F00EF90122544B1A605548FB
:10D9E00018F085FE6378A178090219436279A3795A
:10D9F0001B0213431B041B144F4A0092554A019209
:10DA0000029103934A4801214D4AA9235B0001F08A
:10DA100053F829689E228B5A01338B526279A3797D
:10DA20001B0213431AB2002A02DB01339BB200E04F
:10DA30003C4B3D4AAB523D4B1B68DB0708D43C488E
:10DA400001F0D8F80122394B1A603A4818F04FFE1D
:10DA50009E232A68D35E5A1E3749009137490191A7
:10DA60000292039332480121354A5A23FF3301F0D1
:10DA700023F82B68A020A02292001958A9506178A1
:10DA8000A27812020A432F496A5212316A5A0132AD
:10DA90006A5201266E7209AC227801210A402E21B9
:10DAA0000A43227025226A442E21595C11702F21CD
:10DAB000595C517027226A44002111705170312243
:10DAC0006A44012111700021517029226A44195CB5
:10DAD0001170A0335978517099789170DB78D370B8
:10DAE0002D236B4400221A705A709A70DA700F4B13
:10DAF0001B681E4208D10E4801F07CF801220B4B36
:10DB00001A600C4818F0F3FD0B4B0093124B019375
:10DB1000074801210A4AB6235B0000F0CDFF00262A
:10DB20003EE0C046FFFF0000860200000C2D0020F2
:10DB3000102D0020B9D40100E47F030018810300F8
:10DB4000D37F0300720200003C8103001C800300AD
:10DB50006081030080810300A48103006868331C96
:10DB600008339B00C3185968A94218D04B7A002B80
:10DB700015D00BF043FA33236B4480B21870000ABF
:10DB80005870331C08339B006A6894466344596894
:10DB900001230093686809AA103306F0FBFF0136E1
:10DBA000DE4B1B68002B58D154200FF02DFA041CBB
:10DBB00001270770477000239846A370C82242606F
:10DBC000783A02814281A38196229200C281B93AB9
:10DBD000FF3A0282428240218182FA214901C182B8
:10DBE000C821C9000183082141838283203AC2836E
:10DBF0007B3A028405324284C9498184C949C1847F
:10DC0000FA218900018541858285243287540132B9
:10DC100000218154013283542D3A42863132875497
:10DC20000132032181540421013281540132835491
:10DC300001328754013283543A30BB49293A18F0F3
:10DC40002FFE4A234246E2520233E75209220233B0
:10DC5000E252B64B2365B14B1C60B04B1A683623B9
:10DC6000D35C9E4200DA79E706A90B7801221340C3
:10DC70002C2213430B702B6819226A442E21595C05
:10DC800011702F21595C51701B226A44A849695CAC
:10DC90001170A7496918497851701D216944A02263
:10DCA0009A5C0A701A1CA03250784870907888707C
:10DCB000D278CA7021226A449E21595C11709E3329
:10DCC0005B7853709B4B1B68DB0708D49A4800F0C5
:10DCD00091FF0122974B1A60984818F008FD944B69
:10DCE000E95A2B68A0229A589E201B5E9448009007
:10DCF000944801900291039204938F480121924A23
:10DD00008023FF3300F0D8FE012400946868291CAA
:10DD100006AA0B2306F03EFF286800210AF08AFEBF
:10DD2000844B1B681C4208D1834800F063FF01222A
:10DD3000804B1A60814818F0DAFC814B0093834BCA
:10DD400001937D480121804A8823FF3300F0B4FE0F
:10DD50002868291C04F0AEFB21E1764B1B68DB0729
:10DD600008D4754800F046FF0122724B1A607348D0
:10DD700018F0BDFC764B0093764B01936E48012161
:10DD8000714A9023FF3300F097FE08E12C2B00D05E
:10DD9000E8E00B2F00D0A7E0664B1B68DB0708D438
:10DDA000654800F027FF0122624B1A60634818F0B3
:10DDB0009EFC6378A67836021E436079A3791B0225
:10DDC00003431A1CE17909040B1C1343217A090649
:10DDD0001943627AA37A1B0213431B041B14584A8B
:10DDE00000925D4A019202960391049352480121E8
:10DDF000554A9C23FF3300F05FFE4E4B1B68DB0748
:10DE000008D44D4800F0F6FE01224A4B1A604B48F8
:10DE100018F06DFC9E262B68995F627AA37A1B022C
:10DE200013431B041B14464A00924C4A0192029170
:10DE3000039341480121444A9E23FF3300F03CFEF6
:10DE40006079A27912020243E3791B0413431A1C7E
:10DE5000237A1B061343A0229200AB50A121890014
:10DE6000627AA37A1B0213431B041B146A5AD31849
:10DE7000013B6B5228686779A27912023A43E37931
:10DE80001B0413431A1C237A1B061343A02283503E
:10DE9000627AA37A1B0213431B041B14825BD31800
:10DEA000013B835301246C7200210AF0C3FD214B16
:10DEB0001B681C4208D1204800F09CFE01221D4B2B
:10DEC0001A601E4818F013FC1D4B00931F4B019362
:10DED000194801211C4AD6235B0000F0EDFD28689B
:10DEE000291C04F0E7FA5AE0124B1B68DB0708D440
:10DEF000114800F07FFE01220E4B1A600F4818F007
:10DF0000F6FB134B0093164B01930B4801210E4A6D
:10DF1000DA235B0000F0D0FD41E0C0461C2B00205E
:10DF2000B80B000010270000B87F0300192700007D
:10DF3000720200000C2D0020102D0020B9D4010029
:10DF4000E47F0300E0810300D37F03001482030019
:10DF50001C800300408203005482030018810300E8
:10DF600088820300E27823791B0213432A68D18D4B
:10DF70008B420ED0002B0CD00B49591889B20B489C
:10DF8000814206D90A498B4209D14A23D35C022B2C
:10DF900005D16B68586803685B69311C98470EB0FF
:10DFA00004BC9046F0BDC046D08AFFFFE7030000E6
:10DFB0001979000030B585B0041C0D1C942302684B
:10DFC000D258F533FF33C250C37A002B19D11D4B01
:10DFD0001B68DB0708D41C4800F00CFE0122194B1B
:10DFE0001A601A4818F083FBA37A194A0092194A5A
:10DFF0000192029314480121174A702300F05CFD3E
:10E0000018E0104B1B68DB0708D40F4800F0F2FD46
:10E0100001220C4B1A600D4818F069FBA37A0C4AD8
:10E0200000920E4A01920293074801210A4A722384
:10E0300000F042FDAA889D239B00E2520123237237
:10E0400005B030BD0C2D0020102D0020B9D40100EA
:10E050001C8003009C820300D37F0300C082030066
:10E0600008B59D239B00C05A0CF0DAF908BDC046E4
:10E0700008B5037A002B02D107F034F900E0002044
:10E0800008BDC04610B50023A0229200835042680C
:10E09000127B42740122827400220E4943520121F4
:10E0A00049429D24A4000153027200244472A22418
:10E0B000A4000351084C0353084C0255C93C0255B7
:10E0C000C38183810274064BC152E23BC0580EF0FB
:10E0D00091FD10BD720200007E020000710200007E
:10E0E00086020000F0B587B0041C8D79144B1B68C4
:10E0F000DB0708D4134800F07DFD0122104B1A60A5
:10E10000114818F0F4FA114BE75AA67A281C06F0C9
:10E1100061F80F4B00930F4B019302970396049500
:10E120000590084801210C4AAD2300F0C5FC0022EF
:10E13000A1239B00E252201CFFF7A4FF07B0F0BD13
:10E140000C2D0020102D0020B9D401007202000017
:10E15000E4820300F0820300D37F030038B5041C7F
:10E1600004A800786260A1722360E0721C200EF0A7
:10E170004BFF051C211C1331C82252000EF03CFE3F
:10E18000D2235B00E5500022E033E252044BE2541C
:10E19000C93BE254201CFFF775FF201C38BDC04668
:10E1A0007102000008B5054800F024FD0122044B6F
:10E1B0001A60044818F09BFA08BDC046102D0020D4
:10E1C0000C2D0020710D020008B583685A1E826074
:10E1D000002B01DC0FF098F808BDC04610B5041CF8
:10E1E000024B036008F096FD201C10BDF0B6030042
:10E1F00010B582B000230093002001210222194BA8
:10E200000DF026FD002803D000210A1C02F072FE4A
:10E21000154818300121154A0DF0F0FC002803D0F4
:10E2200000210A1C02F066FE0F4B9C69FEF7F8FB0A
:10E230004368590CD803FA22520000238018594130
:10E24000FA229200002317F0FDFF011C201C00227F
:10E250000DF0A4FC002803D000210A1C02F04AFEA5
:10E2600002B010BDEC290020EC2A0020B5D301003B
:10E2700070B5061C0D1C002413E00B4B1A68002A15
:10E280000ED0231C14339B009858002808D0036A32
:10E29000DB78002B04D003685B6A311C2A1C98478A
:10E2A0000134092CE9DD70BD082B002030B585B0A4
:10E2B000051C04882B4B1B68DB0708D42A4800F098
:10E2C00099FC0122274B1A60284818F010FA201CEC
:10E2D00005F08EFF264B0093264B0193029003948A
:10E2E00021480121244A1623FF3300F0E5FB281CB6
:10E2F0000BF0B8FF281C03F039FA281C03F062FB6E
:10E30000002412E01D4B1A68002A0DD0231C143380
:10E310009B009858002807D0036ADB78002B03D0B5
:10E3200003689B6A291C98470134092CEADD0D4BD0
:10E330001B68DB0708D40C4800F05CFC0122094B89
:10E340001A600A4818F0D3F9094B00930C4B01935B
:10E3500005480121084A92235B0000F0ADFB05B09F
:10E3600030BDC0460C2D0020102D0020710D020084
:10E370002C8303003483030022830300082B002036
:10E38000488303000379002B05D00168054BA022C8
:10E39000D205D15005E00168A123DB00A022D205FF
:10E3A000D15070470C0500000379002B06D001689E
:10E3B000A123DB00A022D205D15004E00168024B6A
:10E3C000A022D205D15070470C0500007047C0460E
:10E3D00008B4024B9C46043808BC6047CDE30100FA
:10E3E00035DF7047038AC38400222923C2540132D7
:10E3F000013BC2547047C0467047C04630B583B039
:10E40000104B114A1A605C689D680DE020680C385A
:10E410000E4B984207D083685A1E8260002B02DCA4
:10E4200001A90EF071FF0434AC42EFD1054B5868DE
:10E43000002801D00EF0E4FD024808F06BFC03B0A8
:10E4400030BDC046102D0020A0A903008435002057
:10E4500030B583B0104B114A1A605C689D680DE0BE
:10E4600020680C380E4B984207D083685A1E826091
:10E47000002B02DC01A90EF047FF0434AC42EFD1BF
:10E48000054B5868002801D00EF0BAFD024808F08C
:10E4900041FC03B030BDC046102D0020A0A90300F0
:10E4A0008435002010B5041C084B1A1C0832026089
:10E4B0002C33436004300AF053FF201C08F02AFC80
:10E4C000201C0EF09DFD201C10BDC046588303008B
:10E4D00008B4024B9C46043808BC6047A5E4010020
:10E4E00010B5041C064B1A1C083202602C33436022
:10E4F00004300AF035FF201C08F00CFC201C10BD75
:10E500005883030008B4024B9C46043808BC60479B
:10E51000E1E40100F0B589B0051C0E1C141C081CB8
:10E520006F490EF0DEFD002800D0A8E003AA1378A2
:10E5300001210B4061390B4313706A486D31694406
:10E540000388007808701B0A4B700F236B4400216E
:10E5500019705970072353711372206863681B1A6E
:10E560009B100ED060490EF0BCFD00280BD0206837
:10E570005E490EF0B6FD002801D1002604E0012618
:10E5800002E0022600E00226226863689B1A072B3D
:10E5900004D9506818F0B3F8C7B200E0052700248A
:10E5A00069E0002E01D0022E30D103AB62009A71D7
:10E5B0000022DA71A86801694B7A002B05D000238C
:10E5C000009303AA143306F0E5FAA86841694B7A70
:10E5D000002B05D00023009303AA143306F0DAFAC7
:10E5E000A86881694B7A002B05D00023009303AA09
:10E5F000143306F0CFFAA868C1694B7A002B05D016
:10E600000023009303AA143306F0C4FA731E012BEF
:10E6100030D803AA6300013393710123D371A86832
:10E6200001694B7A002B04D001230093133306F0C9
:10E63000B1FAA86841694B7A002B05D001230093F9
:10E6400003AA133306F0A6FAA86881694B7A002B57
:10E6500005D00123009303AA133306F09BFAA868A0
:10E66000C1694B7A002B05D00123009303AA133311
:10E6700006F090FA0134A74293DC01202DE0301C13
:10E680001B490EF02EFD002804D1A8680AF074FE84
:10E69000012022E0301C17490EF023FD002805D18F
:10E6A0008020C000FEF7A8FA012016E0301C1249B5
:10E6B0000EF017FD002805D18020C00002F042FEB8
:10E6C00001200AE0301C0D490EF00BFD002803D19B
:10E6D000FFF786FE012000E0002009B0F0BDC04633
:10E6E000F8830300182B00200084030004B5030006
:10E6F000048403000C8403001884030020840300B6
:10E7000010B5041C064B1A1C50320260943343604F
:10E7100001F032FD201C0EF073FC201C10BDC04621
:10E720005883030008B4024B9C46043808BC604779
:10E7300001E7010010B5041C044B1A1C50320260A2
:10E740009433436001F018FD201C10BD5883030072
:10E7500008B4024B9C46043808BC604735E701000A
:10E76000F0B55F4656464D464446F0B493B004AF0C
:10E77000061C38610D1C141C106853681B1A072BEB
:10E7800008D90430311C14310EF0ABFC002803D141
:10E79000012602E0002600E00026002E00D1FBE06A
:10E7A000281CB6490EF09DFC002800D0F4E0236838
:10E7B000181D396914310EF094FC002800D052E184
:10E7C0002068AF490EF08DFC002805D13B699B689D
:10E7D0007B61DB8DFB6005E02368186817F08FFF15
:10E7E00083B2FB60206863681B1A132B07D90830BB
:10E7F000A4490EF076FC002804D17E6104E00023D9
:10E800007B6101E000237B617B69002B68D06B4654
:10E810007B60216863685B1A9B10DA1ED2B25008D5
:10E82000B860D20707D5013B9B00C85817F067FFB7
:10E83000C3B2994601E000239946BA689246530054
:10E840000733DB08DB006A46D31A9D4604AB9846C3
:10E850009B46002631E073005A46D51803339B00CF
:10E860002268D05800210A2218F094FB1F23184078
:10E870002B781F2293431843202318434023184327
:10E8800028706B781C3A9343193293434432934374
:10E890006B70B01CC00023689C4660447A490EF03F
:10E8A00020FC002801D1012300E00023DA016B786D
:10E8B0007F210B4013436B7001365645CBDBBB68A1
:10E8C0005B004A4600924246019202930023039362
:10E8D00038693321FA6802F0D7F97B689D46C4E0B5
:10E8E000206863681B1A9B10032B06D10830674908
:10E8F0000EF0F7FB002800D17E617B69002B16D05B
:10E90000226863689B1A172B04D9506917F0F7FE29
:10E91000C0B200E000200090002301930293039313
:10E9200038693321FA68013302F0AEF99DE02068BE
:10E9300063681B1A0F2B06D9083055490EF0D1FB1E
:10E94000002800D17E617B69002B00D18DE020681A
:10E950000C3050490EF0C5FB002801D1012300E026
:10E960000023FB77226863689B1A132B04D9106974
:10E9700017F0C5FEC0B200E0002000901F23FB1876
:10E980000193012302930023039338693321FA682A
:10E99000033302F079F968E008231822BA18D01876
:10E9A000291C0EF0E4FC636822689D1AAD10002358
:10E9B0007B62BB62FB62002D08D0374B9D4201D9C0
:10E9C0000EF03EFBA8000EF01FFB00E00020786276
:10E9D000B862AD004519FD6225686668041C07E051
:10E9E000002C03D0201C291C0EF0C1FC043504347B
:10E9F000AE42F5D1BC62386908231822BA18D11882
:10EA000004331822BA18D21801F094FD78617C6A98
:10EA1000BE6A10E020680C38204B98420AD0836808
:10EA20005A1E8260002B05DC1C231822BA18D1184C
:10EA30000EF06AFC0434B442ECD1786A002801D0AC
:10EA40000EF0DEFA386A0C38144B98420DD0836809
:10EA50005A1E8260002B08DC18231822BA18D1181D
:10EA60000EF052FC01E000237B617869BD460FB0D7
:10EA70003CBC90469946A246AB46F0BD28840300B4
:10EA800078CD030030840300388403004084030001
:10EA9000448403002C840300FFFFFF3F84350020E3
:10EAA00008B4024B9C46043808BC604761E701008B
:10EAB00008B501F0E1FA08BDF0B589B0041C0E1EDE
:10EAC0000492059312D0FF239B00C55C002D12D148
:10EAD000294B0E9A9A420BD04068A1680EAA0023D7
:10EAE00005F046F9A368834204D104E0012502E061
:10EAF000012500E00125002D3CD0251C1435FA2706
:10EB00007F00281C00213A1C17F0E7FE82239B009F
:10EB10009C466444201C00213A1C17F0DEFE10AB1A
:10EB20000793281C391C0F9A0EF0AEF9012E0ED156
:10EB3000059B00930E9B01930295201C391C0F4AE4
:10EB4000049B19F011F9201C0CF094FF12E0022E26
:10EB500003D1281C0CF08EFF0CE0002E0AD100958A
:10EB6000201CFA214900064A0E9B19F0FDF8201CD2
:10EB70000CF080FF09B0F0BD289D0300488403001D
:10EB80005C840300F0B55F4680B486B0061C0F1CA1
:10EB9000029203930CAD08CD9B46041C1434201C38
:10EBA0000021FA22520017F098FE0595201CFA2148
:10EBB00049005A462B1C0EF067F9002F10D0822313
:10EBC0009B00F518039B00930194281CFA2149002F
:10EBD000074A029B19F0C8F8281C0CF04BFF02E012
:10EBE000201C0CF047FF06B004BC9346F0BDC046A5
:10EBF0006484030070B5041C08F0BEF80E4B23605B
:10EC000000256560A560E5602561201C1430FA26AA
:10EC100076000021321C17F060FE82239B00E01872
:10EC20000021321C17F059FEFF239B00E554201CE5
:10EC300008F0A8F8201C70BDA0A9030000B583B09F
:10EC40000B4B1B68DB0708D40A48FFF7D3FF0122F0
:10EC5000074B1A60084817F04AFD084B0093054817
:10EC60000121074A9223FFF78DFF03B000BDC04684
:10EC70000C2D0020102D002051E40100949F030072
:10EC80007F84030008B4024B9C46043808BC6047EC
:10EC90003DEC010000B583B00B4B1B68DB0708D4CB
:10ECA0000A48FFF7A7FF0122074B1A60084817F030
:10ECB0001EFD084B009305480121074A8B23FFF7EF
:10ECC00061FF03B000BDC0460C2D0020102D0020B8
:10ECD00051E40100909E03007F84030008B4024BBE
:10ECE0009C46043808BC604795EC010000B583B031
:10ECF0000B4B1B68DB0708D40A48FFF77BFF012298
:10ED0000074B1A60084817F0F2FC084B00930548BF
:10ED10000121074A8723FFF735FF03B000BDC04636
:10ED20000C2D0020102D002051E40100E48203008E
:10ED30007F84030008B4024B9C46043808BC60473B
:10ED4000EDEC010008B54379002B01D0FFF71AFB69
:10ED500008BDC04608B54379002B01D0FFF724FB5E
:10ED600008BDC046F0B557464E464546E0B484B0AF
:10ED7000051C1C1C0CAB1E880096231C01F048FED1
:10ED8000237801229343662B00D085E0311C09399A
:10ED90008BB29A466279A3791B0213432A8A934263
:10EDA0007AD1237A002B4FD10022AD33A968CA54FF
:10EDB000002638E0331C0833E3185F1C5B78D80664
:10EDC000C20E91467A785106890F09048846D10609
:10EDD000490F09028C464146604601439207120FD3
:10EDE0000A435906C90F49000A439B06DB0F134328
:10EDF0004A46C132FF329200A021C90553507B78A8
:10EE0000DB0907D001234A469340181CA123DB00ED
:10EE1000C85007E001234A469340181C634BA022C8
:10EE2000D205D0500236B245C4DC6378A278120213
:10EE30001A43E37900930023019302930393281C60
:10EE4000342101F021FF27E0032B25D1637A002B29
:10EE50000FD0AB680021AD2299541869FFF77AFFF3
:10EE6000AB685869FFF776FFAB689869FFF772FFE8
:10EE700003E00122AD23A968CA546378A278120284
:10EE80001A43E37900930023019302930393281C10
:10EE90003421033301F0F8FE237801229343682BD9
:10EEA0007ED16279A3791B0213432A8A934277D1D8
:10EEB000237A002B38D13E4B1B68DB0708D43D4832
:10EEC000FFF798FE01223A4B1A603B4817F00FFCFF
:10EED0006378A178090219436279A3791B0213436D
:10EEE000364A00920191029332480021344AFE23AF
:10EEF000FFF748FE2E4B1B68DB0708D42D48FFF7B1
:10EF000079FE01222A4B1A602B4817F0F0FBE379B7
:10EF10002C4A009201930023029326480021284A9C
:10EF2000FF33FFF72FFE3BE0032B39D1204B1B684B
:10EF3000DB0708D41F48FFF75DFE01221C4B1A6057
:10EF40001D4817F0D4FB6378A17809021943627950
:10EF5000A3791B0213431C4A0092019102931548A6
:10EF60000021174A0423FF33FFF70CFE104B1B68E8
:10EF7000DB0708D40F48FFF73DFE01220C4B1A6057
:10EF80000D4817F0B4FBE3790E4A00920193002379
:10EF90000293084800210A4A0533FF33FFF7F2FDC8
:10EFA00004B01CBC90469946A246F0BD0C0500007A
:10EFB0000C2D0020102D002061F10100A884030019
:10EFC0009A840300E4840300048503000123437151
:10EFD00002718B40191C0360A323DB00A022D20521
:10EFE000D15000238360704730B58BB0041C07F00C
:10EFF000C3FE201D0AF0BAF9454B1A1C08322260E4
:10F000002C336360434B1C600022E2605B68DA8D46
:10F01000414B1A60201C07F0B5FE404B1B68DB0714
:10F0200008D43F48FFF7E6FD01223C4B1A603D48FB
:10F0300017F05DFB01A83C4902AA0EF0C9F9384857
:10F0400001A905F087F901980C38384B984207D090
:10F0500083685A1E8260002B02DC07A90EF054F967
:10F060002E4B1B68DB0708D42D48FFF7C3FD012298
:10F070002A4B1A602B4817F03AFB03A82C4904AA24
:10F080000EF0A6F9264803A905F064F903980C3898
:10F09000264B984207D083685A1E8260002B02DC00
:10F0A00008A90EF031F91D4B1B68DB0708D41C487A
:10F0B000FFF7A0FD0122194B1A601A4817F017FB41
:10F0C00005A81C4906AA0EF083F9154805A905F004
:10F0D00041F905980C38154B984207D083685A1EA1
:10F0E0008260002B02DC09A90EF00EF9124B1B689E
:10F0F000002B07D134200DF087FF051C05F05AFDC9
:10F100000D4B1D600C4B1B68A360201C0BB030BD69
:10F11000588303000C2B0020182B00200C2D0020FE
:10F12000102D002051E40100E47F0300843500200D
:10F13000E482030038850300142B002008B505483D
:10F14000FFF758FD0122044B1A60044817F0CFFA6C
:10F1500008BDC046102D00200C2D0020B5F1010087
:10F1600030B583B0104B114A1A605C689D680DE0A1
:10F1700020680C380E4B984207D083685A1E826074
:10F18000002B02DC01A90EF0BFF80434AC42EFD131
:10F19000054B5868002801D00DF032FF024807F0F7
:10F1A000B9FD03B030BDC046102D0020A0A903005A
:10F1B0008435002030B583B0104B114A1A605C686A
:10F1C0009D680DE020680C380E4B984207D083688C
:10F1D0005A1E8260002B02DC01A90EF095F804345F
:10F1E000AC42EFD1054B5868002801D00DF008FF64
:10F1F000024807F08FFD03B030BDC046102D00203F
:10F20000A0A903008435002010B582B00B7A022B30
:10F2100003D1C36A0133C3623EE0041C002B1ED13C
:10F220001E4B1B68DB0708D41D48FFF7E3FC0122D7
:10F230001A4B1A601B4817F05AFA1B4B00931B4BD2
:10F240000193174801211A4AD623FFF735FC94236E
:10F25000A268D358174A9446634463631CE0012BA9
:10F260001AD10E4B1B68DB0708D40D48FFF7C2FC10
:10F2700001220A4B1A600B4817F039FA0A4B009327
:10F280000D4B019306480121094ADE23FFF714FCC8
:10F29000A26800214823D15202B010BD0C2D0020DD
:10F2A000102D0020B5F10100208603002C860300FC
:10F2B0000E860300102700004C86030070B58AB04C
:10F2C000041C0D1C081CFA21890016F0BFFE002941
:10F2D00020D1E36A002B02D1A36A002B1AD0384B4D
:10F2E0001B68DB0708D43748FFF784FC0122344B46
:10F2F0001A60354817F0FBF9344B0093344B0193F7
:10F30000A36A0293E36A03932E480121314A4923F9
:10F31000FFF7D2FB2623E35C002B2DD130E0A36A5C
:10F320000133A36205AA137801210B4066210B4328
:10F330001370A16815236B442E268E5D1E702F2638
:10F34000895D597017236B4432211970433159700C
:10F350000223137217336B44217C1970617C59703E
:10F36000012353722533E35C013B5E425E4100960C
:10F370000021092305F0BEFBE0684389052BCED9A7
:10F38000636B002B19D09D4217D90D4B1B68DB070F
:10F3900001D4FFF7D3FE0D4B00930F4B01930948A7
:10F3A00001210C4A6223FFF787FBBFF34F8F0B4A03
:10F3B0000B4BDA60BFF34F8FFEE70AB070BDC0465B
:10F3C0000C2D0020102D0020B5F101002086030037
:10F3D000708603000E860300908603000400FA0581
:10F3E00000ED00E008B53323C35C002B02D0111CF4
:10F3F000FFF764FF08BDC04610B5041C064B1A1C7D
:10F40000083202604C33436000F0B6FE201C0DF061
:10F41000F7FD201C10BDC0464085030008B4024B18
:10F420009C46043808BC6047F9F3010010B5041C81
:10F43000044B1A1C083202604C33436000F09CFEFF
:10F44000201C10BD4085030008B4024B9C460438C4
:10F4500008BC60472DF4010010B5041C064B1A1CB3
:10F4600060320260A433436000F086FE201C0DF081
:10F47000C7FD201C10BDC0464085030008B4024BE8
:10F480009C46043808BC604759F4010010B5041CC0
:10F49000044B1A1C60320260A433436000F06CFE1F
:10F4A000201C10BD4085030008B4024B9C46043864
:10F4B00008BC60478DF4010030B583B0051C1C1CEE
:10F4C00006AB1B880093231C01F0A2FA23780122CB
:10F4D0009343662B0AD16279A3791B0213432A8ACC
:10F4E000934203D1281C211CFFF78EFE03B030BDD0
:10F4F000F0B54F464646C0B49DB0061C0F1C141C08
:10F50000106853681B1A072B08D90430311C1431BA
:10F510000DF0E7FD002803D1012502E0002500E001
:10F520000025002D00D1AAE02068A8490DF0D9FDE2
:10F53000002803D1B368DB8D984605E0236818687E
:10F5400017F0DDF883B29846381CA1490DF0C9FDCB
:10F55000002800D093E0206863681B1A0B2B07D9A2
:10F5600008309C490DF0BDFD002804D1A94604E0F7
:10F570000023994601E0002399464B46002B0BD00F
:10F5800000230093019302930393301C33214246DE
:10F5900001F07AFB4D4612E1206808308E490DF0EB
:10F5A000A0FD00280BD10023009301930293039345
:10F5B000301C33214246013301F066FBFFE0206836
:10F5C000083086490DF08DFD002858D12624305D85
:10F5D0000130032116F02AFEC9B23155002916D197
:10F5E0007F4B1B68DB0708D47E48FFF703FB012233
:10F5F0007B4B1A607C4817F07AF87C4B00937C4B6D
:10F600000193784801217B4A9E23FFF755FA262370
:10F61000F35C012B16D1724B1B68DB0708D47148D1
:10F62000FFF7E8FA01226E4B1A606F4817F05FF897
:10F630006E4B0093704B01936A4801216D4A9F23E2
:10F64000FFF73AFA2623F35C022B00D0B7E0644BB5
:10F650001B68DB0708D46348FFF7CCFA0122604B34
:10F660001A60614817F043F8604B0093634B0193B5
:10F670005C4801215F4AA023FFF71EFA9FE0381C77
:10F680005F490DF02EFD002836D1554B1B68DB0776
:10F6900008D45448FFF7AEFA0122514B1A60524881
:10F6A00017F025F8311C30314E48142204AB04F019
:10F6B00035FC544B73634A4B1B68DB0708D449483D
:10F6C000FFF798FA0122464B1A60474817F00FF8E7
:10F6D000464B00934C4B019304AB029314230393CA
:10F6E00040480121434A9E33FFF7E6F93368DB685F
:10F6F000301C9847012562E0381C44490DF0F1FCAC
:10F70000002805D133681B69301C9847012556E055
:10F7100016A8391C0DF02BFE636822689D1AAD10E7
:10F720000023179318931993002D08D0384B9D424E
:10F7300001D90DF085FCA8000DF066FC00E000206A
:10F7400017901890AD004519199525686768041C35
:10F7500007E0002C03D0201C291C0DF008FE043506
:10F760000434AF42F5D11894301C16A917AA00F042
:10F77000E1FE051C179C189E0DE020680C38254BF7
:10F78000984207D083685A1E8260002B02DC1BA9B6
:10F790000DF0BAFD0434B442EFD11798002801D01F
:10F7A0000DF02EFC16980C381A4B984207D083683F
:10F7B0005A1E8260002B02DC1AA90DF0A5FD281C40
:10F7C0001DB00CBC90469946F0BDC04678CD0300F4
:10F7D00028840300208403009C860300BC86030069
:10F7E0000C2D0020102D0020B5F101002086030013
:10F7F000C48603000E860300D4860300F48603004B
:10F8000018870300E02E0000248703003C870300D4
:10F81000FFFFFF3F8435002008B4024B9C460438AC
:10F8200008BC6047F1F4010008B5038A0386012390
:10F8300033228354013A835400234363383002490E
:10F840002B3A17F02DF808BD4887030008B500F0E3
:10F8500013FC08BD30B585B0051C9D239B00C05A24
:10F8600006F07AFC041E03D00021002201F042FBC6
:10F870000D4B1B68DB0708D40C48FFF7BBF90122CE
:10F88000094B1A600A4816F032FFAB7A094A009217
:10F89000094A01920293039404480121074AF32381
:10F8A000FFF70AF905B030BD0C2D0020102D002007
:10F8B000D159020078870300848703005E87030024
:10F8C00030B587B0041C0AA820C8008800950190B4
:10F8D000201C03F0CDFD194B236044336360184BAB
:10F8E0001B68DB0708D41748FFF784F90122144B83
:10F8F0001A60154816F0FBFE03A8144904AA0DF07F
:10F9000067FD104803A904F025FD03980C38104B3F
:10F91000984207D083685A1E8260002B02DC05A93A
:10F920000DF0F2FC231C263323620423A384201C45
:10F9300001F098F8201C07B030BDC046A883030032
:10F940000C2D0020102D002061F10100BC87030068
:10F950008435002030B587B0041C0AA820C8008870
:10F9600000950190201C03F083FD234B1A1C0832E4
:10F9700022604C336360214B1B68DB0708D42048AE
:10F98000FFF738F901221D4B1A601E4816F0AFFE32
:10F9900003A81D4904AA0DF01BFD194803A904F092
:10F9A000D9FC03980C38194B984207D083685A1E2B
:10F9B0008260002B02DC05A90DF0A6FC231C30336D
:10F9C00023621423A38400232622A354A362E362A8
:10F9D000228A2286012233216254013962546363F0
:10F9E000201C38300A49063216F05AFF201C01F05C
:10F9F00039F8201C07B030BD408503000C2D0020D5
:10FA0000102D0020B5F10100208603008435002070
:10FA100048870300F0B54F464646C0B48DB0061C7B
:10FA20000591171C081CB9490DF05BFB00280ED08E
:10FA300074E02B1C08339B00F268944663445868BA
:10FA4000037A002B01D0FFF705FF013500E0002508
:10FA5000AF4B1B68002B59D154200DF0D5FA041C74
:10FA600001270770477000239846A370C8224260A0
:10FA7000783A02814281A38196229200C281B93AEA
:10FA8000FF3A0282428240218182FA214901C182E9
:10FA9000C821C9000183082141838283203AC2839F
:10FAA0007B3A0284053242849A4981849A49C1840E
:10FAB000FA218900018541858285243287540132EB
:10FAC00000218154013283542D3A428631328754C9
:10FAD00001320321815404210132815401328354C3
:10FAE00001328754013283543A308C493031293AFB
:10FAF00016F0D6FE4A234246E2520233E75209226A
:10FB00000233E252864B2365814B1C60804B1A689E
:10FB10003623D35C9D428CDB0125F1E038687B689D
:10FB20001B1A072B08D90430311C14310DF0D9FAF7
:10FB3000002803D1012402E0002400E00024002C6E
:10FB400000D186E0059877490DF0CBFA002800D067
:10FB50007FE0386874490DF0C4FA002803D1B36817
:10FB6000DB8D994605E03B68186816F0C8FD83B246
:10FB7000994638687B681B1A9B10032B07D1083005
:10FB80006A490DF0AEFA002803D1251C02E00025D9
:10FB900000E00025002D0BD0002300930193029379
:10FBA0000393301C33214A46013301F06DF8A7E07E
:10FBB00038687B681B1A9B10032B06D108305C4900
:10FBC0000DF08FFA002800D1251C002D0BD000234A
:10FBD0000093019302930393301C33214A4602336E
:10FBE00001F052F88CE038687B681B1A9B10032BDD
:10FBF00006D108304F490DF074FA002800D1251CB9
:10FC0000002D0BD000230093019302930393301C2B
:10FC100033214A46033301F037F871E038687B68D6
:10FC20001B1A9B10032B06D1083043490DF059FADB
:10FC3000002800D1251C002D0BD000230093019338
:10FC400002930393301C33214A46043301F01CF81D
:10FC500056E00AA805990DF08AFB7B683A689C1A61
:10FC6000A4100023079308930993002C08D0334B6A
:10FC70009C4201D90DF0E4F9A0000DF0C5F900E0B7
:10FC8000002007900890A400041909943D687F683B
:10FC9000041C07E0002C03D0201C291C0DF067FB7E
:10FCA00004350434AF42F5D10894301C0AA907AAE0
:10FCB00000F040FC051C079C089E0DE020680C38F5
:10FCC0001F4B984207D083685A1E8260002B02DCCB
:10FCD0000BA90DF019FB0434B442EFD107980028AA
:10FCE00001D00DF08DF90A980C38154B984207D0C9
:10FCF00083685A1E8260002B02DC06A90DF004FB0B
:10FD0000281C0DB00CBC90469946F0BDC48703007A
:10FD10001C2B0020B80B000010270000C08503003A
:10FD2000192700002884030078CD0300D087030042
:10FD3000DC870300EC870300FC870300FFFFFF3F25
:10FD40008435002030B585B0041C0023C381838135
:10FD50009D239B00C05A0021002206F0FFF9051EDA
:10FD600003D00021002201F0C5F80E4B1B68DB0711
:10FD700008D40D48FEF73EFF01220A4B1A600B48DB
:10FD800016F0B5FCA37A0A4A00920A4A019202933D
:10FD9000039505480121084AE723FEF78DFE05B0CB
:10FDA00030BDC0460C2D0020102D0020D15902007E
:10FDB00078870300088803005E87030008B5037A8C
:10FDC000002B01D0FFF7BEFF08BDC04610B5041CD4
:10FDD0000021352205F026FEA2689423D358A363A0
:10FDE00010BDC04638B50D1CC068898804F056FDAA
:10FDF000041CA879E189013189B2E18140B2A3896B
:10FE0000C01880B2A081322905D916F099F8207463
:10FE10000023E381A38138BD10B5041CFF23026ACF
:10FE2000138003685B69984723689B68201C984788
:10FE300010BDC04608B50548FEF7DCFE0122044BA4
:10FE40001A60044816F053FC08BDC046102D00206F
:10FE50000C2D002049020200F0B557464E4645469B
:10FE6000E0B48EB08C7BE4080A2C18DD0B1C0A7DF4
:10FE70000F339B791B021343714A934211D18B7D3F
:10FE8000F02B10D10B1CCA7D0F335B7A1B0213437E
:10FE90006C4A1268928D934207D0002306E000233B
:10FEA00004E0002302E0002300E00123002B00D047
:10FEB000C0E08B7BDB0700D5BCE08B7B5B079E0F34
:10FEC0004D7B8B7C062B13D1CB7C092B10D10B7D6A
:10FED000442B0DD14B7D552B0AD18E2252008358D5
:10FEE0000133835004326BB28758BC46634483505D
:10FEF00000229CE04A235343C31830339B78002BE5
:10FF000000D193E04A235343C31830331B79FF2BAE
:10FF100003D08F79BB4200D08CE04A235343C318EF
:10FF200038335B79FF2B02D09E4200D082E04A2317
:10FF30005343C31838336EB2DB785BB29E4279DB31
:10FF40004A235343C31838331B795BB29E4271DC9A
:10FF5000894680464A23534343443033DB78012BA0
:10FF600041D0022B3FD1384B1B68DB0701D4FFF790
:10FF700061FF364B0093364B019336480121364AD8
:10FF8000DD23FEF799FD0AAF3B780122924613402C
:10FF9000773213433B7043469A6829236B4400260B
:10FFA0002E21515C19702F21525C5A702B236B4407
:10FFB0001E705E704B46D91D2D206844062216F037
:10FFC0006FFC53467B736BB25B4233226A449BB235
:10FFD00013701B0A53704346D8680096311C3A1CB4
:10FFE0000E2304F087FD184B1B68DB0701D4FFF7D5
:10FFF00021FF6DB24946CB799C460F7A4E7A887ABA
:020000022000DC
:10000000CA7A0B7B1149009114490191029503941E
:1000100061460491059706960790089209930D484A
:1000200001210D4AEE23FEF747FD03E00132002ACD
:1000300000DC5FE70EB01CBC90469946A246F0BDBE
:100040004D020000102B00200C2D00203C890300E5
:1000500044890300102D0020268903004C890300E9
:1000600008B52F23C35C002B04D00B881B2B01D1B8
:10007000FFF7F2FE08BDC04610B584B0041C036A49
:100080001B88FF2B1BD12D4B1B68DB0708D42C488A
:10009000FEF7B0FD0122294B1A602A4816F027FB13
:1000A000294B0093294B019325480121284A4C23D1
:1000B000FEF702FD23685B69201C98473BE0028A3B
:1000C00093421CD01D4B1B68DB0708D41C48FEF76D
:1000D00091FD0122194B1A601A4816F008FB236A99
:1000E0001A88238A1B4900911B49019102920393AC
:1000F00013480121164A5223FEF7DEFC1BE00F4B8A
:100100001B68DB0708D40E48FEF774FD01220B4B79
:100110001A600C4816F0EBFA228A236A9B780A4987
:1001200000910E4901910292039305480121084A6A
:100130005623FEF7C1FC04B010BDC0460C2D0020B4
:10014000102D0020652A020038850300B4890300C1
:10015000A6890300289D0300D0890300F4890300C9
:1001600010B5041CFFF788FF00238E225200A35015
:100170000432A35010BDC04638B5041C064D2B1CDC
:10018000083303602B1C4C334360043006F0C2FD7F
:1001900060352560201C38BD4088030008B4024B40
:1001A0009C46043808BC60477901020010B5041C65
:1001B000044B1A1C78320260BC334360FFF7DCFF4B
:1001C000201C10BD4088030008B4024B9C46043834
:1001D00008BC6047AD01020010B5041C064B1A1C98
:1001E00078320260BC334360FFF7C6FF201C0CF07E
:1001F00007FF201C10BDC0464088030008B4024B16
:100200009C46043808BC6047D901020038B5041C7C
:10021000084D2B1C083303602B1C4C334360043007
:1002200006F078FD60352560201C0CF0E9FE201CEE
:1002300038BDC0464088030008B4024B9C460438D1
:1002400008BC60470D02020030B583B0104B114A64
:100250001A605C689D680DE020680C380E4B98426F
:1002600007D083685A1E8260002B02DC01A90DF0C2
:100270004BF80434AC42EFD1054B5868002801D04C
:100280000CF0BEFE024806F045FD03B030BDC0468E
:10029000102D0020A0A903008435002008B50829EE
:1002A00003D18020C00001F04DF808BD08B5038ED1
:1002B000002B08D0942281688A58816A521A9A4287
:1002C00001D905F089FF08BD00B595B0038A838583
:1002D00000222F23C2540132013BC254094B038632
:1002E00001AB5A70FE329A70DA72633A5A72383A37
:1002F0009A723223C35C002B02D101A905F0B6FF2C
:1003000015B000BD204E0000F0B55F4656464D4684
:100310004446F0B48BB002AF061C0C1C151C1068D0
:100320007C490CF0DEFE002803D1B368DB8D9846D3
:1003300005E02B68186816F0E2F983B29846201C95
:1003400075490CF0CEFE002867D12B689A466C6880
:10035000E41AA410022C00D8CEE06B467B60534612
:100360009B689B460C3B18680130032115F0E8FDA3
:10037000051C83B29946032C05D95346D86816F05C
:10038000BEF9C3B200E000232D042D0C1035ED089A
:10039000ED006A46521B954602AC227801210A40C4
:1003A00064210A432270B268D28D092169440A701F
:1003B000120A4A700B226A44414611704146080AEB
:1003C000507000222272328A0D216944307C0870FC
:1003D000120A4A70E371514B1B68DB0708D450487E
:1003E000FEF708FC01224D4B1A604E4816F07FF9CB
:1003F000221C09324A4859464B4603F045FDF06835
:100400004B4609339BB2012200920021221C04F0CA
:1004100071FB7B689D46012073E0201C42490CF073
:1004200060FE002828D16B682A689B1A9B10022B5B
:1004300064D13B7B01221340642213433B73B368B6
:100440002E229A5C7A732F229B5CBB734346FB730C
:100450004346180A3874337C7B74737CBB74042362
:100460003B75F0680023009300210C33FA18033B1E
:1004700004F040FB012044E0201C2C490CF031FE2C
:1004800000283DD12868083029490CF02AFE0028B0
:1004900001D1012400E000242A686B689B1A0F2B0D
:1004A00004D9D06816F02BF9C1B200E000213B7BE3
:1004B00001221340642213433B73B3682E229A5CDB
:1004C0007A732F229B5CBB734346FB734346180A27
:1004D0003874337C7B74737CBB7402233B75F97472
:1004E0007C75F068013B009300210B33FA18023B46
:1004F00004F000FB012004E0002002E0002000E006
:100500000020BD4609B03CBC90469946A246AB4689
:10051000F0BDC04678CD0300188A03000C2D0020E2
:10052000102D0020652A0200248A0300308A03006F
:100530002C84030070B5041C0D1C161C1068536835
:100540001B1A072B08D90430211C14310CF0C9FDEB
:10055000002803D1013002E0002000E00020002844
:1005600004D0201C291C321CFFF7CEFE70BDC046F3
:1005700008B4024B9C46043808BC604735050200AD
:10058000F0B587B0061C171C68460CF0F0FE7B68BF
:100590003A689C1AA4100023019302930393002C41
:1005A00008D0264B9C4201D90CF04AFDA0000CF06B
:1005B0002BFD00E0002001900290A4000419039498
:1005C0003D687F68041C07E0002C03D0201C291C18
:1005D0000CF0CDFE04350434AF42F5D10294301C4A
:1005E000694601AAFFF7A6FF051C019C029E0DE0CB
:1005F00020680C38124B984207D083685A1E8260DC
:10060000002B02DC05A90CF07FFE0434B442EFD1CC
:100610000198002801D00CF0F3FC00980C38084B2E
:10062000984207D083685A1E8260002B02DC04A91E
:100630000CF06AFE281C07B0F0BDC046FFFFFF3F6C
:100640008435002008B4024B9C46043808BC60473F
:1006500081050200F0B557464E464546E0B4BD4C14
:10066000A54404AF547993791B022343048AA4461A
:10067000A34200D0B9E1141C061C0D89093DADB29E
:10068000127A002A6DD1E17A006A8378994236D1D4
:10069000B28C954233D103889846211C093116F05B
:1006A000FFF8336A42461A803B7A01221A406423DB
:1006B00013433B72B3682E229A5C00217A722F2278
:1006C0009B5CBB726278A3781B021343FB721B0A0C
:1006D0003B7343467B7343461B0ABB73E379FB734F
:1006E00001233B747974F06800910733FA180233E0
:1006F00004F000FA33689B68301C9847AEE09942DA
:1007000017D0954B1B68DB0708D49448FEF772FAA4
:100710000122914B1A60924815F0E9FF338A914A01
:10072000009201938D4800218F4AF023FEF72AFAA8
:1007300094E0894B1B68DB0708D48848FEF75AFA17
:100740000122854B1A60864815F0D1FF338A874A0B
:100750000092019381480021834AF123FEF712FAA7
:100760007CE0042A41D1EA46828C092399469144CF
:10077000131C1033DB08DB006946CB1A9D4604AB23
:1007800098461B7801210B4064210B4341460B70B6
:100790008368DB8D112169440B701B0A4B706178F3
:1007A000A3781B020B43132169440B701B0A4B7087
:1007B00015236B44614619706146090A5970E37943
:1007C0004146CB7105230B7219206844316A16F03B
:1007D00067F8F0684B46FB809BB200220092002134
:1007E000424604F087F9D54638E0022A36D132E095
:1007F000111C14318900B0680958002929D0088AD1
:10080000834226D10B6A627ADA703B7A0122134066
:10081000642213433B72B2682E23D15C00237972A9
:100820002F21525CBA726178A278F9723A73327CE5
:100830007A73727CBA73E279FA7303223A747B7426
:10084000F068009300210833FA18023304F052F9DB
:1008500004E0013200E00022092AC9D9237A012BE1
:100860003AD13D4B1B68DB0708D43C48FEF7C2F980
:100870000122394B1A603A4815F039FF6378A178A4
:10088000090219436279A3791B021343384A009283
:100890000191029331480021334A2823FF33FEF7A8
:1008A00071F92D4B1B68DB0708D42C48FEF7A2F921
:1008B0000122294B1A602A4815F019FFE279637A60
:1008C0002C4900910192029324480021264A942346
:1008D0005B00FEF757F988E0032B4FD11E4B1B68D6
:1008E000DB0708D41D48FEF785F901221A4B1A6070
:1008F0001B4815F0FCFE6378A17809021943627960
:10090000A3791B0213431C4A0092019102931348DE
:100910000021154A96235B00FEF734F90E4B1B6845
:10092000DB0708D40D48FEF765F901220A4B1A606F
:100930000B4815F0DCFEE279637A0E4900910192D2
:10094000029306480021084A2E23FF33FEF71AF9C6
:100950004BE0C046C8FCFFFF0C2D0020102D0020EE
:10096000652A02003C8A0300A6890300848A0300EA
:10097000D48A0300E48403000C8B0300052B34D1DC
:100980001E4B1B68DB0708D41D48FEF733F9012214
:100990001A4B1A601B4815F0AAFE1948211C093190
:1009A0002A1C0823FB1803F0B9FA144B1B68DB0759
:1009B00008D41348FEF71EF90122104B1A601148A3
:1009C00015F095FE6278A3781B021343328A0E4914
:1009D0000091019302920823FB1803930848002119
:1009E0000A4A9A235B00FEF7CDF8BD46CA239B0056
:1009F0009D441CBC90469946A246F0BD0C2D00209B
:100A0000102D0020652A0200448B0300A6890300F4
:100A100010B51C7801229443642C02D11A1CFFF7F4
:100A200019FE10BD30B583B0051C1C1C06AB1B881D
:100A30000093231CFFF7ECFF237801229343662BDE
:100A40000DD16279A3791B0213432A8A934206D1FE
:100A5000237A002B03D1281C211C05F081FB03B055
:100A600030BDC046F0B583B0041C3E4B1B68002B64
:100A700058D154200CF0C8FA051C012606704670A7
:100A8000002700238770C8224260783A02814281A1
:100A9000878196229200C281B93AFF3A028242824D
:100AA00040218182FA214901C182C821C900018304
:100AB000082141838283203AC2837B3A0284053233
:100AC0004284294981842949C184FA218900018508
:100AD00041858285243286540132002181540132BD
:100AE00083542D3A42863132865401320321815497
:100AF000042101328154013283540132865401327F
:100B000083543A301A494831293A15F0C9FE4A232C
:100B1000EF520233EE5209220233EA52154B2B6593
:100B2000104B1D600F4B1B685B78002B03D0201C03
:100B3000FFF772F913E0104B1B68DB0708D40F486E
:100B40000BF0A8FE01220C4B1A600D4815F0CFFDEA
:100B5000216AA28C638A009408480BF04BFE03B014
:100B6000F0BDC0461C2B0020B80B00001027000071
:100B7000C088030019270000803500207C34002045
:100B80004D2A020010B582B0041C0B4B1B68DB071A
:100B900008D40A480BF07EFE0122074B1A60084871
:100BA00015F0A5FD216AA28C638A009403480BF01E
:100BB0000BFE02B010BDC046803500207C34002002
:100BC0004D2A020030B585B0041C134B1B68DB07AF
:100BD00008D41248FEF70EF801220F4B1A60104895
:100BE00015F085FD8E256D0090235B00E35803937F
:100BF0000C4B00930C4B019363590293074801215E
:100C00000A4A7123FDF758FF6359002B02D0201CBC
:100C100005F0F2FA05B030BD0C2D0020102D00209B
:100C200049020200808B0300888B030026890300A1
:100C300030B583B0041C06A820C800880095019038
:100C4000201C02F015FC0F4B1A1C78322260BC33BA
:100C500063600023A362231C2C3323620623A38436
:100C6000002206E04A235343E318303300219970F1
:100C70000132002AF6DD201CFFF7F4FE201C03B031
:100C800030BDC04640880300F0B557464E46454645
:100C9000E0B482B002AF061C9A46202038180078D3
:100CA00084463C8D2C20381800788046201C10305B
:100CB000C008C0006D46281A854602AD4900287854
:100CC0000123184001432970B368D98D0920684475
:100CD0000170090A41700B2169440A70120A4A70B6
:100CE000328A0D216944307C0870120A4A706346CA
:100CF000EB7153462B727B6A002B07D0002C05D07A
:100D0000281C0930191C221C15F0CAFDF068093492
:100D1000A3B24246009200212A1C03F0EBFEBD461E
:100D20001CBC90469946A246F0BDC0467047C046DE
:100D30007047C0467047C04648DF704747DF70477E
:100D40003BDF704732DF704761DF704760DF70471D
:100D500087DF704786DF704708B50348034B0360A1
:100D600005F0D8FF08BDC0467C340020F0B6030073
:100D700030B583B0104B114A1A605C689D680DE075
:100D800020680C380E4B984207D083685A1E826048
:100D9000002B02DC01A90CF0B7FA0434AC42EFD10D
:100DA000054B5868002801D00CF02AF9024805F0DC
:100DB000B1FF03B030BDC046102D0020A0A9030034
:100DC0008435002030B583B0104B114A1A605C683E
:100DD0009D680DE020680C380E4B984207D0836860
:100DE0005A1E8260002B02DC01A90CF08DFA04343B
:100DF000AC42EFD1054B5868002801D00CF000F947
:100E0000024805F087FF03B030BDC046102D00201A
:100E1000A0A903008435002000B583B00C4B1B68EB
:100E2000DB0708D40B48FDF7E5FE0122084B1A60EA
:100E3000094815F05CFC094B0093094B01930548E8
:100E40000121084A8E23FDF737FE002003B000BDC4
:100E50000C2D0020102D0020C50D02003C89030040
:100E60001C8D0300078D030030B583B0041CC58AB8
:100E70000F4B1B68DB0708D40E48FDF7BBFE0122B1
:100E80000B4B1A600C4815F032FC0C4B00930C4BCA
:100E90000193084801210B4A8A235B00FDF70CFEF1
:100EA000A088094B1B68291C984703B030BDC04679
:100EB0000C2D0020102D00201599020098A1030090
:100EC0004C8D0300378D0300202B002008B583894B
:100ED000002B0AD0C289054B9A4206D1027C044BF2
:100EE0009B7D9A4201D1FFF7BFFF08BD241500008A
:100EF000882B0020F0B587B0124B984200D1FEE756
:100F0000161C0D1C041E16D003F082F9071C0E4B94
:100F10001B68DB0701D4FDF745F90C4B00930C4B24
:100F2000019302940397049605950A4801210A4A01
:100F3000D523FDF7C1FD082C02D0112C00D0FEE70F
:100F400007B0F0BDEFBEADDE0C2D0020289D0300E4
:100F5000648D0300102D00202283030008B5034890
:100F600000210022FFF7C6FF08BDC046EFBEADDE80
:100F700000B585B0244B1B68DB0701D4FDF712F9DF
:100F8000224B0093224B019322480121224AA423A1
:100F9000FDF792FD0820214904314722002309F082
:100FA00029FF002803D000210A1CFFF7A3FF1C48DB
:100FB00009F016FF002803D000210A1CFFF79AFF52
:100FC00002A80023029380239B0043600123037047
:100FD000FFF7BCFE002803D000210A1CFFF78AFFA0
:100FE0000120FFF7ABFE002803D000210A1CFFF709
:100FF00081FF0120FFF7A4FE002803D000210A1C76
:10100000FFF778FF05B000BD0C2D0020848D030094
:101010008C8D0300102D002022830300202B002044
:101020000DD50100F0B5474680B48AB0041C0F1CF2
:1010300090461E1C10AB1D78224B1B68DB0708D4A2
:101040002148FDF7D7FD01221E4B1A601F4815F0FD
:101050004EFB1F4B00931F4B019302960394049782
:101060000595194801211C4A94235B00FDF724FDD6
:1010700007AB0022079208925F80DE804246099209
:10108000002D0DD0191C01230B70201C09F074F8E1
:10109000041E03D000210022FFF72CFF201C0CE0CF
:1010A00007A902230B70201C09F066F8041E03D068
:1010B00000210022FFF71EFF201C0AB004BC90464E
:1010C000F0BDC0460C2D0020102D00201599020007
:1010D000A48D0300B08D0300378D030010B584B0DC
:1010E000041C134B1B68DB0708D41248FDF782FD74
:1010F00001220F4B1A60104815F0F9FA0F4B0093BC
:101100000F4B01930B4801210E4AFE23FDF7D4FC3F
:1011100003A9638A0B80A38A4B80A08809F02EF86C
:10112000002803D000210022FFF7E4FE04B010BD28
:101130000C2D0020102D00201599020098A103000D
:10114000E08D0300378D030008B580880021002260
:10115000002309F015F8002803D000210022FFF732
:10116000C9FE08BD30B591B005F02CFE674B1B6879
:10117000DB0701D4FDF716F801A8654902AA0CF0B7
:1011800027F9644801A903F0E5F801980C38624B8F
:10119000984202D00BA9FDF717F85C4B1B68DB07E0
:1011A00001D4FCF7FFFF03A85C4904AA0CF010F976
:1011B000584803A903F0CEF803980C38564B9842D0
:1011C00002D00CA9FDF700F8504B1B68DB0701D4D7
:1011D000FCF7E8FF05A8524906AA0CF0F9F84D48BB
:1011E00005A903F0B7F805980C384B4B984202D08C
:1011F0000DA9FCF7E9FF454B1B68DB0701D4FCF7A1
:10120000D1FF07A8474908AA0CF0E2F8414807A90E
:1012100003F0A0F807980C383F4B984202D00EA973
:10122000FCF7D2FF394B1B68DB0701D4FCF7BAFF90
:1012300009A83D490AAA0CF0CBF8364809A903F0E1
:1012400089F809980C38344B984202D00FA9FCF762
:10125000BBFFFFF78DFE354B1B68DB0708D4344816
:101260000BF018FB0122314B1A60324815F03FFA9F
:10127000FBF7D6FB458EB0200BF0C6FE041C291CE4
:1012800001F05CF92C4B1C6010200BF0BDFEFDF74B
:10129000ABFEFCF7ADFF05F07FFD284947230B802F
:1012A00027480430FFF750FD002804D124480430BB
:1012B000FCF7FCFFF1E7052820D11F4B1868002838
:1012C00010D08C23C15A00290CD007F01FF91A4DF9
:1012D0002B688C24185B94229958FCF7C9FF2B6863
:1012E00000221A53FFF728FD002803D00021002216
:1012F000FFF700FE1620FFF725FDCCE70028CAD037
:1013000000210022FFF7F6FDC5E7C0460C2D0020A6
:10131000848D0300102D002084350020F08D030003
:10132000F88D0300008E0300E47F03008035002069
:101330007C340020590D0200082B002018280020C2
:10134000202B0020F0B583B0041C774B1B889842FB
:1013500000D1EFE1002B1ED0FFF7FAFC002803D0EC
:1013600000210022FFF7C6FD704B1B68DB0708D485
:101370006F48FDF73FFC01226C4B1A606D4815F079
:10138000B6F96D4B00936D4B0193694801216C4A8E
:101390003323FDF791FB8023DB009C4200D0DDE08E
:1013A000684B1B68002B57D154200BF02DFE051CF9
:1013B000012606704670002700238770C82242600D
:1013C000783A02814281878196229200C281B93A9D
:1013D000FF3A0282428240218182FA214901C18280
:1013E000C821C9000183082141838283203AC28336
:1013F0007B3A028405324284534981845349C18433
:10140000FA21890001854185828524328654013282
:1014100000218154013283542D3A42863132865460
:101420000132032181540421013281540132835459
:1014300001328654013283543A304549293A15F035
:101440002FFA4A23EF520233EE5209220233EA52B4
:10145000404B2B653B4B1D603A4B1A68518A3E4B03
:101460004C331981002A57D154200BF0CDFD051CB7
:10147000012606704670002700238770C82242604C
:10148000783A02814281878196229200C281B93ADC
:10149000FF3A0282428240218182FA214901C182BF
:1014A000C821C9000183082141838283203AC28375
:1014B0007B3A028405324284234981842349C184D2
:1014C000FA218900018541858285243286540132C2
:1014D00000218154013283542D3A428631328654A0
:1014E0000132032181540421013281540132835499
:1014F00001328654013283543A301549293A15F0A5
:10150000CFF94A23EF520233EE5209220233EA5254
:10151000104B2B650B4B1D600A4B1B689A8A0E4BB8
:101520004C335A81E1E0C046842B00200C2D002072
:10153000102D0020C50D020098A10300048E0300A9
:10154000078D03001C2B0020B80B000010270000A3
:10155000EC8C030019270000202B0020F0231B0136
:101560009C4200D0C1E0744B1B68002B57D1542023
:101570000BF04AFD051C012606704670002700236B
:101580008770C8224260783A028142818781962220
:101590009200C281B93AFF3A02824282402181829E
:1015A000FA214901C182C821C90001830821418370
:1015B0008283203AC2837B3A0284053242845F49A7
:1015C00081845F49C184FA21890001854185828532
:1015D00024328654013200218154013283542D3A41
:1015E0004286313286540132032181540421013272
:1015F00081540132835401328654013283543A308B
:101600005049293A15F04CF94A23EF520233EE5271
:1016100009220233EA524C4B2B65474B1D60464B67
:101620001A68118B494B4C331981002A57D1542029
:101630000BF0EAFC051C012606704670002700230B
:101640008770C8224260783A02814281878196225F
:101650009200C281B93AFF3A0282428240218182DD
:10166000FA214901C182C821C900018308214183AF
:101670008283203AC2837B3A0284053242842F4916
:1016800081842F49C184FA218900018541858285A1
:1016900024328654013200218154013283542D3A80
:1016A00042863132865401320321815404210132B1
:1016B00081540132835401328654013283543A30CA
:1016C0002049293A15F0ECF84A23EF520233EE5242
:1016D00009220233EA521C4B2B65174B1D60164B37
:1016E0001B685A8B194B4C335A81002C20D0174859
:1016F0004C30FFF72FFB002803D000210022FFF71A
:10170000F9FB134B1B68DB0708D41248FDF772FA8C
:1017100001220F4B1A60104814F0E9FF0F4B0093A1
:101720000F4B01930B4801210E4A4723FDF7C4F9E3
:101730000D4B1C8003B0F0BD1C2B0020B80B00002B
:1017400010270000EC8C030019270000202B00203C
:101750000C2D0020102D0020C50D020098A10300C3
:10176000188E0300078D0300842B002010B5011C88
:101770000388192B34D01B2B02D0102B37D129E032
:10178000837B572B18D9031C027D0F339B791B02D7
:1017900013431A4A934211D1837DF02B10D1031CBD
:1017A000C27D0F335B7A1B021343154A1268928D78
:1017B000934207D0002406E0002404E0002402E065
:1017C000002400E00124002C13D00D4B186807F012
:1017D00073F811E08020C000FFF7B4FD00240BE097
:1017E0008379022B07D1FFF717FB041C04E00024C8
:1017F00002E0012400E00024201C10BD4D02000086
:10180000102B002070B5684A4C21535C01208343A3
:1018100001308343535400231365644B1B68002B32
:1018200057D152300BF0F0FB041C012505704570B8
:10183000002600238670C8224260783A02814281E5
:10184000868196229200C281B93AFF3A0282428290
:1018500040218182FA214901C182C821C900018346
:10186000082141838283203AC2837B3A0284053275
:1018700042844F4981844F49C184FA2189000185FE
:101880004185828524328554013200218154013200
:1018900083542D3A428631328554013203218154DA
:1018A00004210132815401328354013285540132C2
:1018B00083543A304049293A14F0F2FF4A23E65261
:1018C0000233E55209220233E2523C4B2365374B87
:1018D0001C60364B1A68518A334B4C331981002AED
:1018E00057D154200BF090FB041C01250570457066
:1018F000002600238670C8224260783A0281428125
:10190000868196229200C281B93AFF3A02824282CF
:1019100040218182FA214901C182C821C900018385
:10192000082141838283203AC2837B3A02840532B4
:1019300042841F4981841F49C184FA21890001859D
:10194000418582852432855401320021815401323F
:1019500083542D3A42863132855401320321815419
:101960000421013281540132835401328554013201
:1019700083543A301049293A14F092FF4A23E65230
:101980000233E55209220233E2520C4B2365074B26
:101990001C60064B1A68044B4C33928A5A81002211
:1019A0009A81074B1A8070BD202B00201C2B002031
:1019B000B80B000010270000EC8C03001927000072
:1019C000842B002008B50388522B2ED89B00194A7F
:1019D000D3589F4601202BE08288174B1A830020A2
:1019E00026E001225242144B1A83002020E0134BC0
:1019F000DB6D984701201BE0FFF7A6FB002017E0F6
:101A00000E4B1B6E9847012012E08389002B0ED0ED
:101A1000FFF764FB01200BE0FFF758FA012007E015
:101A2000064B1B6E9847012002E0002000E00120D9
:101A300008BDC046A08B0300882B0020202B00206F
:101A400030B583B006AC2578094CA04208D0094CCB
:101A5000A14207D0002B07D00095FFF7E3FA04E07E
:101A6000002002E0002000E0002003B030BDC046AE
:101A70000230000003300000014B58897047C04617
:101A8000882B0020014B18667047C046202B002091
:101A9000014B18607047C046202B0020014BD865D1
:101AA0007047C046202B00207047C0467047C04694
:101AB00070DF704708B50348034B036005F02AF94F
:101AC00008BDC0467C340020F0B6030010B582B0DB
:101AD000041C124B1B68DB0708D41148FDF78AF879
:101AE00001220E4B1A600F4814F001FE0E4B0093BA
:101AF0000E4B01930A4801210D4AD423FCF7DCFF69
:101B00007823E35C022B06D0A37B002B03D1201C9F
:101B1000022105F07FFA02B010BDC0460C2D002056
:101B2000102D002061230200848D0300508E0300DD
:101B3000478E030008B4024B9C46043808BC60473B
:101B4000CD1A020010B582B0041C124B1B68DB07D3
:101B500008D41148FDF74EF801220E4B1A600F48C9
:101B600014F0C5FD0E4B00930E4B01930A48012162
:101B70000D4AB723FCF7A0FF7823E35C062B06D0C1
:101B8000A37B002B03D1201C062105F043FA02B0F1
:101B900010BDC0460C2D0020102D00206123020036
:101BA000848D0300648E0300478E030008B4024B4B
:101BB0009C46043808BC6047451B0200F0B54F4600
:101BC0004646C0B48BB0041C4822835A013383526A
:101BD000CD4B1868898802F061FE051C437A002B02
:101BE00000D138E2A1239B00C25E9E23E35E9B1AD4
:101BF0009A4207DC00D010E1E28DC44BC35A9A42EE
:101C000000D30AE1201C06F051FCA023E050C04B99
:101C10001B68DB0708D4BF48FCF7ECFF0122BC4B74
:101C20001A60BD4814F063FD9E26A25FA127BF0085
:101C3000EB5FD31AB9490091B9490191029203931C
:101C4000B4480121B74AE723FCF736FFEB5BA25B00
:101C5000D21AA25305A8027801210A402E210A4374
:101C6000027015226A442E21615C11702F21615C83
:101C7000517017226A4400211170517019226A4470
:101C8000A0218900695C1170A02189006918487839
:101C9000507088789070C978D1701D226A44A02154
:101CA000615C1170211CA031487850708878907068
:101CB000C978D1705B4221226A449BB213701B0A1F
:101CC0005370934B1B68DB0708D49248FCF792FFD4
:101CD00001228F4B1A60904814F009FD8B4BEA5A91
:101CE000089B1B021B148D4900918F4901910292A0
:101CF0000393884801218B4AF823FCF7DDFE002777
:101D000021E0814B18683B1C08339B00C3185968BD
:101D1000A94217D04B7A002B14D007F06FF9232378
:101D20006B4480B21870000A5870774B18683B1CDF
:101D300008339B00C31859680123009305AA103388
:101D400002F028FF0137794B1B68002B5DD154202E
:101D50000BF05AF9061C01239846037043700023C8
:101D60009946B370C8224260783A02814281B381B9
:101D700096229200C281B93AFF3A02824282402101
:101D80008182FA214901C182C821C9000183082149
:101D900041838283203AC2837B3A028405324284A3
:101DA000634981846349C184FA21890001854185A1
:101DB000828524324146815401320021815401320E
:101DC00083542D3A428631324146815401320321F7
